:100000000C9434000C943E000C943E000C943E0082
:100010000C943E000C943E000C943E000C943E0068
:100020000C943E000C943E000C943E000C943E0058
:100030000C943E000C9451000C943E000C943E0035
:100040000C943E000C943E000C943E000C943E0038
:100050000C943E000C943E000C943E000C943E0028
:100060000C943E000C943E0011241FBECFEFD8E04C
:10007000DEBFCDBF0E9440000C9463000C940000D2
:1000800084B1806284B910928000E1E8F0E0808160
:1000900085608083EFE6F0E08081816080837894E2
:1000A000FFCF1F920F920FB60F9211248F939F9341
:1000B00095B180E2892785B99F918F910F900FBEEE
:0A00C0000F901F901895F894FFCFE1
:00000001FF
