:100000000C9434000C943E000C943E000C943E0082
:100010000C943E000C943E000C943E000C943E0068
:100020000C943E000C943E000C943E000C943E0058
:100030000C943E000C943E000C943E000C943E0048
:100040000C943E000C943E000C943E000C943E0038
:100050000C943E000C943E000C943E000C943E0028
:100060000C943E000C943E0011241FBECFEFD8E04C
:10007000DEBFCDBF0E9463000C946F000C940000A3
:1000800088EF8093B2001092B00085E08093B100B9
:10009000B89BFECF1092B10087B3816087BB0895F3
:1000A0000F931F93CF93DF938C01C0E0D0E003C088
:1000B0000E9440002196C017D107D4F3DF91CF9161
:1000C0001F910F91089584B1806284B995B180E247
:1000D000892785B988EE93E00E945000F7CFF89405
:0200E000FFCF50
:00000001FF
