S01A0000303031355F55534152545F524543454956452E73726563F4
S11300000C9434000C9449000C9449000C9449005D
S11300100C9449000C9449000C9449000C94490038
S11300200C9449000C9449000C9449000C94490028
S11300300C9449000C9449000C9449000C94490018
S11300400C9449000C9449000C9449000C94490008
S11300500C9449000C9449000C9449000C944900F8
S11300600C9449000C94490011241FBECFEFD8E032
S1130070DEBFCDBF11E0A0E0B1E0EEE8F1E002C0E8
S113008005900D92A031B107D9F70E948F000C940E
S1130090C5000C940000DC01CB01880F991FAA1F36
S11300A0BB1F880F991FAA1FBB1F9C01AD01220F04
S11300B0331F441F551F220F331F441F551F60E079
S11300C074E284EF90E00E94A30021503109309340
S11300D0C5002093C40088E18093C10086E080932A
S11300E0C20008959091C00095FFFCCF8093C60094
S11300F008950F931F93CF93DF938C01C0E0D0E05A
S113010003C00E9472002196F801EC0FFD1F80814C
S11301108111F7CFDF91CF911F910F91089560E87E
S113012075E280E090E00E944B0080E091E00E9444
S113013079002FEF83ED90E3215080409040E1F768
S113014000C00000F2CFA1E21A2EAA1BBB1BFD01C6
S11301500DC0AA1FBB1FEE1FFF1FA217B307E407A2
S1130160F50720F0A21BB30BE40BF50B661F771FFA
S1130170881F991F1A9469F76095709580959095DA
S11101809B01AC01BD01CF010895F894FFCF9F
S113018E48656C6C6F576F726C642E2E0D0A0000EE
S9030000FC
