:100000000C9434000C943E000C943E000C943E0082
:100010000C943E000C943E000C943E000C943E0068
:100020000C943E000C943E000C943E000C943E0058
:100030000C943E000C943E000C943E000C943E0048
:100040000C943E000C943E000C943E000C943E0038
:100050000C943E000C943E000C943E000C943E0028
:100060000C943E000C943E0011241FBECFEFD8E04C
:10007000DEBFCDBF0E9479000C94AF000C9400004D
:10008000DC01CB01880F991FAA1FBB1F880F991F86
:10009000AA1FBB1F9C01AD01220F331F441F551F18
:1000A000220F331F441F551F60E074E284EF90E07D
:1000B0000E948D00215031093093C5002093C40067
:1000C00088E18093C10086E08093C20008959C017E
:1000D0009091C00095FFFCCFE1ECF0E090819E7F15
:1000E000908330FF03C08081816080832093C600AD
:1000F000089560E875E280E090E00E9440008FEF94
:1001000091E00E9467002FEF83ED90E32150804043
:100110009040E1F700C00000F2CFA1E21A2EAA1B26
:10012000BB1BFD010DC0AA1FBB1FEE1FFF1FA217A7
:10013000B307E407F50720F0A21BB30BE40BF50BA4
:10014000661F771F881F991F1A9469F7609570952D
:10015000809590959B01AC01BD01CF010895F89465
:02016000FFCFCF
:00000001FF
