S0270000303030375F4750494F5F534556454E5F5345474D454E545F444953504C41592E73726563E1
S11300000C9434000C943E000C943E000C943E007E
S11300100C943E000C943E000C943E000C943E0064
S11300200C943E000C943E000C943E000C943E0054
S11300300C943E000C943E000C943E000C943E0044
S11300400C943E000C943E000C943E000C943E0034
S11300500C943E000C943E000C943E000C943E0024
S11300600C943E000C943E0011241FBECFEFD8E048
S1130070DEBFCDBF0E9447000C9451010C940000D8
S11300808BB18C6F8BB985B1836085B908958AB1C2
S11300908C6F8AB984B1836084B90E9440008BB1AB
S11300A08B7F8BB98BB1877F8BB98BB18F7E8BB9EB
S11300B08BB18F7D8BB98BB18F7B8BB98BB18F77E4
S11300C08BB92FEF83ED90E3215080409040E1F70E
S11300D000C000000E9440008BB1877F8BB98BB1B8
S11300E08F7E8BB92FEF83ED90E3215080409040B9
S11300F0E1F700C000000E9440008BB18B7F8BB9F8
S11301008BB1877F8BB98BB18F7D8BB98BB18F7B93
S11301108BB985B18E7F85B92FEF83ED90E32150A4
S113012080409040E1F700C000000E9440008BB185
S11301308B7F8BB98BB1877F8BB98BB18F7E8BB95A
S11301408BB18F7D8BB985B18E7F85B92FEF83ED10
S113015090E3215080409040E1F700C000000E94ED
S113016040008BB1877F8BB98BB18F7E8BB98BB1FC
S11301708F778BB985B18E7F85B92FEF83ED90E3AF
S1130180215080409040E1F700C000000E944000F0
S11301908BB18B7F8BB98BB18F7E8BB98BB18F7DFC
S11301A08BB98BB18F778BB985B18E7F85B92FEFE2
S11301B083ED90E3215080409040E1F700C00000BF
S11301C00E9440008BB18B7F8BB98BB18F7E8BB932
S11301D08BB18F7D8BB98BB18F7B8BB98BB18F77C3
S11301E08BB985B18E7F85B92FEF83ED90E32150D4
S11301F080409040E1F700C000000E9440008BB1B5
S11302008B7F8BB98BB1877F8BB98BB18F7E8BB989
S11302102FEF83ED90E3215080409040E1F700C040
S113022000000E9440008BB18B7F8BB98BB1877F1C
S11302308BB98BB18F7E8BB98BB18F7D8BB98BB121
S11302408F7B8BB98BB18F778BB985B18E7F85B955
S11302502FEF83ED90E3215080409040E1F700C000
S113026000000E9440008BB18B7F8BB98BB1877FDC
S11302708BB98BB18F7E8BB98BB18F7D8BB98BB1E1
S11302808F778BB985B18E7F85B92FEF83ED90E39E
S1130290215080409040E1F700C000000E944000DF
S10902A0FECEF894FFCF2E
S9030000FC
