:100000000C9434000C9446000C9446000C9446006A
:100010000C9446000C9446000C9446000C94460048
:100020000C9446000C9446000C9446000C94460038
:100030000C9446000C9446000C9446000C94460028
:100040000C9446000C9446000C9446000C94460018
:100050000C9446000C9446000C9446000C94460008
:100060000C9446000C94460011241FBECFEFD8E03C
:10007000DEBFCDBF21E0A0E0B1E001C01D92A23003
:10008000B207E1F70E9448000C946D000C94000048
:1000900084B1806284B914BC85B5836085BDA89B9A
:1000A0000CC0809100019091010101969093010193
:1000B0008093000185B3816085BB809100019091A0
:1000C0000101883C910559F795B180E2892785B9EE
:0E00D0001092010110920001E2CFF894FFCFD0
:00000001FF
