:100000000C9434000C943E000C943E000C943E0082
:100010000C943E000C943E000C943E000C943E0068
:100020000C943E000C943E000C943E000C943E0058
:100030000C943E000C943E000C943E000C943E0048
:100040000C943E000C943E000C943E000C943E0038
:100050000C943E000C943E000C943E000C943E0028
:100060000C943E000C943E0011241FBECFEFD8E04C
:10007000DEBFCDBF0E9460000C946C000C940000A9
:1000800088EF86BD14BC85B5856085BDA89BFECF75
:1000900015BC85B3816085BB08950F931F93CF93E3
:1000A000DF938C01C0E0D0E003C00E9440002196A5
:1000B000C017D107D4F3DF91CF911F910F9108950D
:1000C00084B1806284B995B180E2892785B988EED0
:0C00D00093E00E944D00F7CFF894FFCFA2
:00000001FF
