S01F0000303031385F55534152545F52585F494E544552525550542E7372656319
S11300000C9434000C9446000C9446000C94460066
S11300100C9446000C9446000C9446000C94460044
S11300200C9446000C9446000C9446000C94460034
S11300300C9446000C9446000C9446000C94460024
S11300400C9446000C9446000C949A000C944600C0
S11300500C9446000C9446000C9446000C94460004
S11300600C9446000C94460011241FBECFEFD8E038
S1130070DEBFCDBF21E0A0E0B1E001C01D92A13000
S1130080B207E1F70E9470000C94DF000C940000AA
S1130090DC01CB01880F991FAA1FBB1F880F991F72
S11300A0AA1FBB1F9C01AD01220F331F441F551F04
S11300B0220F331F441F551F60E074E284EF90E069
S11300C00E94BD00215031093093C5002093C40023
S11300D086E08093C20088E18093C10078940895FB
S11300E084B1806284B984B1806184B960E875E2C6
S11300F080E090E00E944800E1ECF0E080818068BC
S1130100808385B1806185B92FEF89E698E121501C
S113011080409040E1F700C0000085B18F7E85B932
S11301202FEF89E698E1215080409040E1F700C02C
S11301300000E7CF1F920F920FB60F9211248F93F6
S1130140EF93FF93E6ECF0E08081809300018083DD
S113015080910001813321F485B1806285B905C0A5
S1130160803319F485B18F7D85B9FF91EF918F911B
S11301700F900FBE0F901F901895A1E21A2EAA1B84
S1130180BB1BFD010DC0AA1FBB1FEE1FFF1FA21743
S1130190B307E407F50720F0A21BB30BE40BF50B40
S11301A0661F771F881F991F1A9469F760957095C9
S11301B0809590959B01AC01BD01CF010895F89401
S10501C0FFCF6B
S9030000FC
