S02B000030303036625F54696D6572305F4354435F4D6F6465203330485A2070756C73652067656E657261748B
S11300000C9434000C943E000C943E000C943E007E
S11300100C943E000C943E000C943E000C943E0064
S11300200C943E000C943E000C943E000C943E0054
S11300300C943E000C943E000C943E000C943E0044
S11300400C943E000C943E000C943E000C943E0034
S11300500C943E000C943E000C943E000C943E0024
S11300600C943E000C943E0011241FBECFEFD8E048
S1130070DEBFCDBF0E9440000C9460000C940000D1
S11300808AB180628AB98AB180648AB984B582608F
S113009084BD84B5806584BD8FEF87BD85B58560DB
S11300A085BDA99BFECF85B3826085BB2FEF89E612
S11300B098E1215080409040E1F700C00000F1CF6A
S10700C0F894FFCFDE
S9030000FC
