:100000000C9434000C943E000C943E000C943E0082
:100010000C943E000C943E000C943E000C943E0068
:100020000C943E000C943E000C943E000C943E0058
:100030000C943E000C943E000C943E000C943E0048
:100040000C943E000C943E000C943E000C943E0038
:100050000C943E000C943E000C943E000C943E0028
:100060000C943E000C943E0011241FBECFEFD8E04C
:10007000DEBFCDBF0E944C000C9456000C940000D3
:1000800082E386BD14BC85E085BDA89BFECF15BC70
:1000900085B3816085BB089584B1806284B995B1D0
:1000A00080E2892785B90E944000F9CFF894FFCFFC
:00000001FF
